:04000000FEEFFFF020
:020000040001F9
:10FF60000001D8EFFFF0B888F00EB816B9501F0B9B
:10FF70004009B96EB988B950F00B0609B96E39015C
:10FF8000A39FB88E1200000EC46E000E3A01606F7F
:10FF9000000EBC6E000EC56E000E706F000EBD6EC2
:10FFA000C368070E516F000E506F000EBB6E12003B
:10FFB000C3ECFFF0B3ECFFF03901A3AFE2EFFFF0C9
:10FFC000E4EFFFF0DCEFFFF08A0EB76ED00EB66EF6
:10FFD000BC1EBDB0EEEFFFF0F1EFFFF0010EF2EF4F
:10FFE000FFF0000EFF0A016EBD500118FE0B011854
:10FFF000BD6EA39FDCEFFFF0FEEFFFF0B0EFFFF070
:020000040020DA
:10000000FF0FFF0FFF0FFF0FFF0FFF0FFF0FFF0F80
:020000040030CA
:0A000000FAFFFFFF9FFFFFFFFFFF65
:00000001FF
