:020000040000FA
:04000000FEEFFFF020
:0D2000000048616C6C6F2057656C74000027
:10200E00030E086EE80E076E8AEC10F074EC10F0FA
:10201E00010E0A6E200E0B6E000E0D6E000E0C6E73
:10202E003EEF10F03901A6A71FEF10F021EF10F0D0
:10203E0031EF10F00C500A24056E0D500B20066E79
:10204E00600017F0F6FF60001BF0F7FF08006F004E
:10205E00D7FFD2FD020E066E450E056EAA0EE82EB5
:10206E00FED7052EFCD7062EFAD70C4A0D2A600095
:10207E0028F001F060002CF002F053EC10F001504B
:10208E000C5C02500D58D8A04FEF10F051EF10F02D
:10209E0019EF10F0FEEFFFF0600004F003F06000A7
:1020AE0008F004F05DEF10F0014A022A600007F01C
:1020BE00F6FF60000BF0F7FF0800F5500009D8A4FA
:1020CE006BEF10F06DEF10F05BEF10F00350015C52
:1020DE00016E04500258026E12003D01DA9F000E8E
:1020EE00DE6F800EDD6FF00EDA17DB8F160E3A0103
:1020FE001E6F3D01DA8B1200000EF86E200EF76E89
:0A210E00000107EF10F0C590120069
:020000040001F9
:04FFFC0083EF10F08F
:020000040020DA
:10000000FF0FFF0FFF0FFF0FFF0FFF0FFF0FFF0F80
:020000040030CA
:0A000000FAFFFFFF9FFFFFFFFFFF65
:00000001FF
