:020000040000FA
:04000000FEEFFFF020
:020000040001F9
:10FF7800E5ECFFF0FEEFFFF0026A016A0001BCEF5A
:10FF8800FFF0000EC46E000E3A01606F000EBC6EEA
:10FF9800C368070E516F000E506F000EBB6EC59000
:10FFA8001200B888B850F00B0309B86EB9501F0B8F
:10FFB8004009B96EB988F00EB9163901A39FB88EF9
:10FFC8001200C5ECFFF0D5ECFFF0B850F00B0809B3
:10FFD800B86E3901A3AFF3EFFFF0F5EFFFF0EDEFE7
:10FFE800FFF03C0EB76EB00EB66EBC1EA39FEDEFD1
:08FFF800FFF01200C0EFFFF062
:020000040020DA
:10000000FF0FFF0FFF0FFF0FFF0FFF0FFF0FFF0F80
:020000040030CA
:0A000000FAFFFFFF9FFFFFFFFFFF65
:00000001FF
