:020000040000FA
:04000000FEEFFFF020
:020000040001F9
:10FEF4000001BBEFFFF0F30E3E01F817F889000E86
:10FF0400F16F12003D01DA9F000EDE6F800EDD6F8F
:10FF1400F00EDA17DB8F160E3A011E6F3D01DA8BF5
:10FF24001200B888F00EB816B9501F0B4009B96E0C
:10FF3400B988B950F00B0509B96E3901A39FB88E81
:10FF44001200000EC46E000EBC6E000E3A01606F0B
:10FF5400F00EC56E000EBD6E000E706FC368000E0D
:10FF6400BB6E000E506F070E516FC2804081C5906A
:10FF74001200A3ECFFF07DECFFF084ECFFF093ECB7
:10FF8400FFF03E01F88F3901A3AFCBEFFFF0CDEFC7
:10FF9400FFF0C5EFFFF09C0EB76E400EB66ED9ECC5
:10FFA400FFF03901A39FC5EFFFF0FEEFFFF0000E55
:10FFB400016E3E01F881F8B1E2EFFFF0E4EFFFF0EB
:10FFC400DDEFFFF06F00C0FB02F06F00BCFB01F03F
:10FFD4003901A19560000BF0BCFF01380F0B0F0B2A
:10FFE400BD6EA6A7F8EFFFF0FAEFFFF0FDEFFFF00C
:0CFFF40060000BF0D2FD12007AEFFFF06D
:020000040020DA
:10000000FF0FFF0FFF0FFF0FFF0FFF0FFF0FFF0F80
:020000040030CA
:0A000000FAFFFFFF9FFFFFFFFFFF65
:00000001FF
