:04000000FEEFFFF020
:1020000000E070381C0E070E1C387000000EC46E05
:10201000000EBC6E000E3A01606F000E016E000EE5
:10202000026EA7EC10F001C013F002C014F003C060
:1020300015F004C016F005C017F006C018F007C070
:1020400019F008C01AF013C009F015C00AF0CFEC5F
:1020500010F03CEC10F00D50BC6E030E146E8A0EA6
:10206000136E560EE82EFED7132EFCD7142EFAD779
:1020700029EF10F0FEEFFFF01BC001F01CC002F0D2
:102080001DC003F01EC004F02D0E056E7F0E066EFF
:10209000950E076E4C0E086E72EC10F0010E0124C6
:1020A0001B6E000E02201C6E000E03201D6E000E23
:1020B00004201E6E1BC00FF01CC010F01DC011F0DC
:1020C0001EC012F0120E6AEF10F0D89012321132C8
:1020D00010320F32E82E65EF10F00FC00DF010C077
:1020E0000EF01200000E096E000E0A6E000E0B6E4E
:1020F000000E0C6E01A07FEF10F081EF10F089EF61
:1021000010F00550092606500A2207500B220850ED
:102110000C22D8900536063607360836D890043299
:102120000332023201320150021003100410D8A40D
:102130009CEF10F09EEF10F07AEF10F009C001F064
:102140000AC002F00BC003F00CC004F012000150F2
:102150000210D8B4AEEF10F0B0EF10F0C6EF10F0F0
:10216000600007F0D9FF60000BF0DAFFFF0EDE6EB3
:10217000FF0EDE6EFF0EDE6EFF0EDE6EFF0EDE6EFB
:10218000FF0EDE6EFF0EDE6EFF0EDD6E0168026872
:102190000368046805680668076808681200FF0E8F
:1021A0000B6EFF0E0C6E09C00DF00AC00EF00B5046
:1021B0000D260C500E220DC01BF00EC01CF01D6A27
:1021C0001E6A1200000EF86E200EF76E000106EF78
:0221D00010F00D
:020000040001F9
:04FFFC00E2EF10F030
:020000040020DA
:10000000FF0FFF0FFF0FFF0FFF0FFF0FFF0FFF0F80
:020000040030CA
:0A000000FAFFFFFF9FFFFFFFFFFF65
:00000001FF
